{
  "contractName": "Election",
  "abi": [
    {
      "inputs": [
        {
          "internalType": "string",
          "name": "_name",
          "type": "string"
        },
        {
          "internalType": "uint256",
          "name": "duration",
          "type": "uint256"
        },
        {
          "internalType": "bytes32[]",
          "name": "con",
          "type": "bytes32[]"
        }
      ],
      "payable": false,
      "stateMutability": "nonpayable",
      "type": "constructor"
    },
    {
      "anonymous": false,
      "inputs": [
        {
          "indexed": false,
          "internalType": "string",
          "name": "_message",
          "type": "string"
        }
      ],
      "name": "Voted",
      "type": "event"
    },
    {
      "constant": true,
      "inputs": [],
      "name": "auctionEnd",
      "outputs": [
        {
          "internalType": "uint256",
          "name": "",
          "type": "uint256"
        }
      ],
      "payable": false,
      "stateMutability": "view",
      "type": "function"
    },
    {
      "constant": true,
      "inputs": [
        {
          "internalType": "uint256",
          "name": "",
          "type": "uint256"
        }
      ],
      "name": "condidates",
      "outputs": [
        {
          "internalType": "bytes32",
          "name": "name",
          "type": "bytes32"
        },
        {
          "internalType": "uint256",
          "name": "voteCount",
          "type": "uint256"
        }
      ],
      "payable": false,
      "stateMutability": "view",
      "type": "function"
    },
    {
      "constant": true,
      "inputs": [],
      "name": "owner",
      "outputs": [
        {
          "internalType": "address",
          "name": "",
          "type": "address"
        }
      ],
      "payable": false,
      "stateMutability": "view",
      "type": "function"
    },
    {
      "constant": true,
      "inputs": [
        {
          "internalType": "address",
          "name": "",
          "type": "address"
        }
      ],
      "name": "voters",
      "outputs": [
        {
          "internalType": "bool",
          "name": "voted",
          "type": "bool"
        },
        {
          "internalType": "uint256",
          "name": "indexVoter",
          "type": "uint256"
        },
        {
          "internalType": "uint256",
          "name": "weight",
          "type": "uint256"
        }
      ],
      "payable": false,
      "stateMutability": "view",
      "type": "function"
    },
    {
      "constant": false,
      "inputs": [
        {
          "internalType": "address",
          "name": "voter",
          "type": "address"
        }
      ],
      "name": "authorize",
      "outputs": [],
      "payable": false,
      "stateMutability": "nonpayable",
      "type": "function"
    },
    {
      "constant": true,
      "inputs": [],
      "name": "getCondidateNames",
      "outputs": [
        {
          "internalType": "bytes32[]",
          "name": "",
          "type": "bytes32[]"
        }
      ],
      "payable": false,
      "stateMutability": "view",
      "type": "function"
    },
    {
      "constant": true,
      "inputs": [],
      "name": "getCondidateVotes",
      "outputs": [
        {
          "internalType": "uint256[]",
          "name": "",
          "type": "uint256[]"
        }
      ],
      "payable": false,
      "stateMutability": "view",
      "type": "function"
    },
    {
      "constant": true,
      "inputs": [],
      "name": "getCount",
      "outputs": [
        {
          "internalType": "uint256",
          "name": "count",
          "type": "uint256"
        }
      ],
      "payable": false,
      "stateMutability": "view",
      "type": "function"
    },
    {
      "constant": false,
      "inputs": [
        {
          "internalType": "uint256",
          "name": "voteIndex",
          "type": "uint256"
        }
      ],
      "name": "vote",
      "outputs": [],
      "payable": false,
      "stateMutability": "nonpayable",
      "type": "function"
    }
  ],
  "bytecode": "0x608060405234801561001057600080fd5b50604051610aeb380380610aeb8339818101604052606081101561003357600080fd5b810190808051604051939291908464010000000082111561005357600080fd5b8382019150602082018581111561006957600080fd5b825186600182028301116401000000008211171561008657600080fd5b8083526020830192505050908051906020019080838360005b838110156100ba57808201518184015260208101905061009f565b50505050905090810190601f1680156100e75780820380516001836020036101000a031916815260200191505b50604052602001805190602001909291908051604051939291908464010000000082111561011457600080fd5b8382019150602082018581111561012a57600080fd5b825186602082028301116401000000008211171561014757600080fd5b8083526020830192505050908051906020019060200280838360005b8381101561017e578082015181840152602081019050610163565b5050505090500160405250505033600160006101000a81548173ffffffffffffffffffffffffffffffffffffffff021916908373ffffffffffffffffffffffffffffffffffffffff16021790555082600090805190602001906101e2929190610281565b50603c8202420160048190555060008090505b8151811015610278576003604051806040016040528084848151811061021757fe5b60200260200101518152602001600081525090806001815401808255809150509060018203906000526020600020906002020160009091929091909150600082015181600001556020820151816001015550505080806001019150506101f5565b50505050610326565b828054600181600116156101000203166002900490600052602060002090601f016020900481019282601f106102c257805160ff19168380011785556102f0565b828001600101855582156102f0579182015b828111156102ef5782518255916020019190600101906102d4565b5b5090506102fd9190610301565b5090565b61032391905b8082111561031f576000816000905550600101610307565b5090565b90565b6107b6806103356000396000f3fe608060405234801561001057600080fd5b50600436106100935760003560e01c80638da5cb5b116100665780638da5cb5b1461018c578063a3ec138d146101d6578063a87d942c14610240578063b6a5d7de1461025e578063c3efeffd146102a257610093565b80630121b93f146100985780632a24f46c146100c657806378f8c4ed146100e457806379d96aa91461012d575b600080fd5b6100c4600480360360208110156100ae57600080fd5b8101908080359060200190929190505050610301565b005b6100ce61049d565b6040518082815260200191505060405180910390f35b610110600480360360208110156100fa57600080fd5b81019080803590602001909291905050506104a3565b604051808381526020018281526020019250505060405180910390f35b6101356104d4565b6040518080602001828103825283818151815260200191508051906020019060200280838360005b8381101561017857808201518184015260208101905061015d565b505050509050019250505060405180910390f35b610194610576565b604051808273ffffffffffffffffffffffffffffffffffffffff1673ffffffffffffffffffffffffffffffffffffffff16815260200191505060405180910390f35b610218600480360360208110156101ec57600080fd5b81019080803573ffffffffffffffffffffffffffffffffffffffff16906020019092919050505061059c565b6040518084151515158152602001838152602001828152602001935050505060405180910390f35b6102486105d3565b6040518082815260200191505060405180910390f35b6102a06004803603602081101561027457600080fd5b81019080803573ffffffffffffffffffffffffffffffffffffffff1690602001909291905050506105e0565b005b6102aa6106df565b6040518080602001828103825283818151815260200191508051906020019060200280838360005b838110156102ed5780820151818401526020810190506102d2565b505050509050019250505060405180910390f35b600454421061030f57600080fd5b600260003373ffffffffffffffffffffffffffffffffffffffff1673ffffffffffffffffffffffffffffffffffffffff16815260200190815260200160002060000160009054906101000a900460ff161561036957600080fd5b6001600260003373ffffffffffffffffffffffffffffffffffffffff1673ffffffffffffffffffffffffffffffffffffffff16815260200190815260200160002060000160006101000a81548160ff021916908315150217905550600260003373ffffffffffffffffffffffffffffffffffffffff1673ffffffffffffffffffffffffffffffffffffffff168152602001908152602001600020600201546003828154811061041457fe5b9060005260206000209060020201600101600082825401925050819055507f38cb362e55241cdbab8a2f1105fb99fc7be1f0d6a865f97e688d6d5df0a036146040518080602001828103825260138152602001807f566f746564207375636365737366756c6c79210000000000000000000000000081525060200191505060405180910390a150565b60045481565b600381815481106104b057fe5b90600052602060002090600202016000915090508060000154908060010154905082565b606060006104e06105d3565b90506060816040519080825280602002602001820160405280156105135781602001602082028038833980820191505090505b50905060008090505b60038054905081101561056d576003818154811061053657fe5b90600052602060002090600202016000015482828151811061055457fe5b602002602001018181525050808060010191505061051c565b50809250505090565b600160009054906101000a900473ffffffffffffffffffffffffffffffffffffffff1681565b60026020528060005260406000206000915090508060000160009054906101000a900460ff16908060010154908060020154905083565b6000600380549050905090565b600160009054906101000a900473ffffffffffffffffffffffffffffffffffffffff1673ffffffffffffffffffffffffffffffffffffffff163373ffffffffffffffffffffffffffffffffffffffff161461063a57600080fd5b600260008273ffffffffffffffffffffffffffffffffffffffff1673ffffffffffffffffffffffffffffffffffffffff16815260200190815260200160002060000160009054906101000a900460ff161561069457600080fd5b6001600260008373ffffffffffffffffffffffffffffffffffffffff1673ffffffffffffffffffffffffffffffffffffffff1681526020019081526020016000206002018190555050565b606060006106eb6105d3565b905060608160405190808252806020026020018201604052801561071e5781602001602082028038833980820191505090505b50905060008090505b600380549050811015610778576003818154811061074157fe5b90600052602060002090600202016001015482828151811061075f57fe5b6020026020010181815250508080600101915050610727565b5080925050509056fea265627a7a72315820edb0a66f11a3e73945ab3cc105cccf505a3442c0f551326ff1420064562ca14e64736f6c63430005100032",
  "source": "// SPDX-License-Identifier: MIT\r\npragma solidity >=0.4.22 <0.9.0;\r\n\r\n\r\n/// @title A title that should describe the contract/interface\r\n/// @author The name of the author\r\n/// @notice Explain to an end user what this does\r\n/// @dev Explain to a developer any extra details\r\n\r\n\r\ncontract Election{\r\n\r\n    struct Voter{\r\n        bool voted;\r\n        uint indexVoter;\r\n        uint weight;\r\n    }\r\n\r\n    struct Condidate{\r\n        bytes32 name;\r\n        uint voteCount;\r\n    }\r\n    string name;\r\n    address public owner;\r\n    mapping(address => Voter) public voters;\r\n    Condidate[] public condidates;\r\n    uint public auctionEnd;\r\n\r\n    event Voted(string _message);\r\n\r\n    constructor (string memory _name, uint duration,bytes32[] memory con) public {\r\n        owner = msg.sender;\r\n        name = _name;\r\n        auctionEnd =    block.timestamp + (duration * 1 minutes);\r\n\r\n        for (uint i = 0; i < con.length; i++) {\r\n            // `Proposal({...})` creates a temporary\r\n            // Proposal object and `proposals.push(...)`\r\n            // appends it to the end of `proposals`.\r\n            condidates.push(Condidate({\r\n                name: con[i],\r\n                voteCount: 0\r\n            }));\r\n        }\r\n\r\n    }\r\n\r\n    function authorize(address voter) public {\r\n        // the sender is the owner\r\n        require(msg.sender == owner);\r\n        require(!voters[voter].voted);\r\n\r\n        voters[voter].weight = 1;\r\n    }\r\n\r\n    function getCondidateNames() view public returns (bytes32[] memory) {\r\n        uint csa = getCount();\r\n        bytes32[] memory foo = new bytes32[](csa);\r\n        for (uint i = 0; i < condidates.length; i++) {\r\n            foo[i] = condidates[i].name;\r\n        }\r\n        return foo;\r\n    }\r\n\r\n    function getCondidateVotes() view public returns (uint[] memory) {\r\n        uint csa = getCount();\r\n        uint[] memory foo = new uint[](csa);\r\n        for (uint i = 0; i < condidates.length; i++) {\r\n            foo[i] = condidates[i].voteCount;\r\n        }\r\n        return foo;\r\n    }\r\n\r\n    function getCount() public view returns(uint count) {\r\n        return condidates.length;\r\n    }\r\n\r\n    function vote(uint voteIndex) public {\r\n        // the duration of vote has't already pass\r\n        require(block.timestamp < auctionEnd);\r\n        // the sender has't voted before\r\n        require(!voters[msg.sender].voted);\r\n        voters[msg.sender].voted = true;\r\n        condidates[voteIndex].voteCount += voters[msg.sender].weight;\r\n        \r\n        emit Voted(\"Voted successfully!\");\r\n    }\r\n\r\n\r\n}\r\n",
  "sourcePath": "C:/Users/Lahmi/Projects/blockchain/polarizer/contracts/Election.sol",
  "compiler": {
    "name": "solc",
    "version": "0.5.16+commit.9c3226ce.Emscripten.clang"
  },
  "schemaVersion": "3.3.4",
  "updatedAt": "2021-02-24T12:31:53.715Z",
  "networkType": "ethereum",
  "devdoc": {
    "author": "The name of the author",
    "details": "Explain to a developer any extra details",
    "methods": {},
    "title": "A title that should describe the contract/interface"
  },
  "userdoc": {
    "methods": {},
    "notice": "Explain to an end user what this does"
  }
}