{
  "contractName": "Election",
  "abi": [
    {
      "inputs": [
        {
          "internalType": "uint256",
          "name": "duration",
          "type": "uint256"
        }
      ],
      "payable": false,
      "stateMutability": "nonpayable",
      "type": "constructor"
    },
    {
      "anonymous": false,
      "inputs": [
        {
          "indexed": false,
          "internalType": "string",
          "name": "_message",
          "type": "string"
        }
      ],
      "name": "Voted",
      "type": "event"
    },
    {
      "constant": true,
      "inputs": [],
      "name": "auctionEnd",
      "outputs": [
        {
          "internalType": "uint256",
          "name": "",
          "type": "uint256"
        }
      ],
      "payable": false,
      "stateMutability": "view",
      "type": "function"
    },
    {
      "constant": true,
      "inputs": [],
      "name": "owner",
      "outputs": [
        {
          "internalType": "address",
          "name": "",
          "type": "address"
        }
      ],
      "payable": false,
      "stateMutability": "view",
      "type": "function"
    },
    {
      "constant": true,
      "inputs": [
        {
          "internalType": "address",
          "name": "",
          "type": "address"
        }
      ],
      "name": "voters",
      "outputs": [
        {
          "internalType": "uint256",
          "name": "weight",
          "type": "uint256"
        }
      ],
      "payable": false,
      "stateMutability": "view",
      "type": "function"
    },
    {
      "constant": true,
      "inputs": [],
      "name": "getproposals",
      "outputs": [
        {
          "components": [
            {
              "internalType": "address",
              "name": "creator",
              "type": "address"
            },
            {
              "internalType": "string",
              "name": "description",
              "type": "string"
            },
            {
              "internalType": "uint256[]",
              "name": "condidate_voteCount",
              "type": "uint256[]"
            },
            {
              "internalType": "bytes32[]",
              "name": "condidate_name",
              "type": "bytes32[]"
            }
          ],
          "internalType": "struct Election.Proposals[]",
          "name": "",
          "type": "tuple[]"
        }
      ],
      "payable": false,
      "stateMutability": "view",
      "type": "function"
    },
    {
      "constant": false,
      "inputs": [
        {
          "internalType": "bytes32[]",
          "name": "_condidates",
          "type": "bytes32[]"
        },
        {
          "internalType": "string",
          "name": "_description",
          "type": "string"
        }
      ],
      "name": "addProposals",
      "outputs": [],
      "payable": false,
      "stateMutability": "nonpayable",
      "type": "function"
    },
    {
      "constant": false,
      "inputs": [
        {
          "internalType": "address",
          "name": "voter",
          "type": "address"
        }
      ],
      "name": "authorize",
      "outputs": [],
      "payable": false,
      "stateMutability": "nonpayable",
      "type": "function"
    },
    {
      "constant": true,
      "inputs": [],
      "name": "getAuthorized",
      "outputs": [
        {
          "internalType": "address[]",
          "name": "",
          "type": "address[]"
        }
      ],
      "payable": false,
      "stateMutability": "view",
      "type": "function"
    },
    {
      "constant": false,
      "inputs": [
        {
          "internalType": "uint256",
          "name": "propIndex",
          "type": "uint256"
        },
        {
          "internalType": "uint256",
          "name": "choiceIndex",
          "type": "uint256"
        }
      ],
      "name": "vote",
      "outputs": [],
      "payable": false,
      "stateMutability": "nonpayable",
      "type": "function"
    }
  ],
  "bytecode": "0x60806040523480156200001157600080fd5b506040516200157a3803806200157a833981810160405262000037919081019062000231565b33600160006101000a81548173ffffffffffffffffffffffffffffffffffffffff021916908373ffffffffffffffffffffffffffffffffffffffff160217905550603c81024201600581905550620000b7600160009054906101000a900473ffffffffffffffffffffffffffffffffffffffff16620000be60201b60201c565b5062000281565b600160009054906101000a900473ffffffffffffffffffffffffffffffffffffffff1673ffffffffffffffffffffffffffffffffffffffff163373ffffffffffffffffffffffffffffffffffffffff16146200011957600080fd5b6000600260008373ffffffffffffffffffffffffffffffffffffffff1673ffffffffffffffffffffffffffffffffffffffff16815260200190815260200160002060000154146200016957600080fd5b6001600260008373ffffffffffffffffffffffffffffffffffffffff1673ffffffffffffffffffffffffffffffffffffffff1681526020019081526020016000206000018190555060038190806001815401808255809150509060018203906000526020600020016000909192909190916101000a81548173ffffffffffffffffffffffffffffffffffffffff021916908373ffffffffffffffffffffffffffffffffffffffff1602179055505050565b6000815190506200022b8162000267565b92915050565b6000602082840312156200024457600080fd5b600062000254848285016200021a565b91505092915050565b6000819050919050565b62000272816200025d565b81146200027e57600080fd5b50565b6112e980620002916000396000f3fe608060405234801561001057600080fd5b50600436106100885760003560e01c8063a3ec138d1161005b578063a3ec138d14610105578063b384abef14610135578063b6a5d7de14610151578063bd64555a1461016d57610088565b80632a24f46c1461008d57806364645c03146100ab5780638413ad48146100c95780638da5cb5b146100e7575b600080fd5b610095610189565b6040516100a2919061101b565b60405180910390f35b6100b361018f565b6040516100c09190610fd9565b60405180910390f35b6100d1610396565b6040516100de9190610fb7565b60405180910390f35b6100ef610424565b6040516100fc9190610f9c565b60405180910390f35b61011f600480360361011a9190810190610bab565b61044a565b60405161012c919061101b565b60405180910390f35b61014f600480360361014a9190810190610c40565b610468565b005b61016b60048036036101669190810190610bab565b610661565b005b61018760048036036101829190810190610bd4565b6107bb565b005b60055481565b60606004805480602002602001604051908101604052809291908181526020016000905b8282101561038d57838290600052602060002090600402016040518060800160405290816000820160009054906101000a900473ffffffffffffffffffffffffffffffffffffffff1673ffffffffffffffffffffffffffffffffffffffff1673ffffffffffffffffffffffffffffffffffffffff168152602001600182018054600181600116156101000203166002900480601f0160208091040260200160405190810160405280929190818152602001828054600181600116156101000203166002900480156102c55780601f1061029a576101008083540402835291602001916102c5565b820191906000526020600020905b8154815290600101906020018083116102a857829003601f168201915b505050505081526020016002820180548060200260200160405190810160405280929190818152602001828054801561031d57602002820191906000526020600020905b815481526020019060010190808311610309575b505050505081526020016003820180548060200260200160405190810160405280929190818152602001828054801561037557602002820191906000526020600020905b815481526020019060010190808311610361575b505050505081525050815260200190600101906101b3565b50505050905090565b6060600380548060200260200160405190810160405280929190818152602001828054801561041a57602002820191906000526020600020905b8160009054906101000a900473ffffffffffffffffffffffffffffffffffffffff1673ffffffffffffffffffffffffffffffffffffffff16815260200190600101908083116103d0575b5050505050905090565b600160009054906101000a900473ffffffffffffffffffffffffffffffffffffffff1681565b60026020528060005260406000206000915090508060000154905081565b600554421061047657600080fd5b600260003373ffffffffffffffffffffffffffffffffffffffff1673ffffffffffffffffffffffffffffffffffffffff168152602001908152602001600020600201600083815260200190815260200160002060009054906101000a900460ff16156104e157600080fd5b6001600260003373ffffffffffffffffffffffffffffffffffffffff1673ffffffffffffffffffffffffffffffffffffffff168152602001908152602001600020600201600084815260200190815260200160002060006101000a81548160ff02191690831515021790555080600260003373ffffffffffffffffffffffffffffffffffffffff1673ffffffffffffffffffffffffffffffffffffffff168152602001908152602001600020600101600084815260200190815260200160002081905550600260003373ffffffffffffffffffffffffffffffffffffffff1673ffffffffffffffffffffffffffffffffffffffff16815260200190815260200160002060000154600483815481106105f557fe5b9060005260206000209060040201600201828154811061061157fe5b90600052602060002001600082825401925050819055507f38cb362e55241cdbab8a2f1105fb99fc7be1f0d6a865f97e688d6d5df0a0361460405161065590610ffb565b60405180910390a15050565b600160009054906101000a900473ffffffffffffffffffffffffffffffffffffffff1673ffffffffffffffffffffffffffffffffffffffff163373ffffffffffffffffffffffffffffffffffffffff16146106bb57600080fd5b6000600260008373ffffffffffffffffffffffffffffffffffffffff1673ffffffffffffffffffffffffffffffffffffffff168152602001908152602001600020600001541461070a57600080fd5b6001600260008373ffffffffffffffffffffffffffffffffffffffff1673ffffffffffffffffffffffffffffffffffffffff1681526020019081526020016000206000018190555060038190806001815401808255809150509060018203906000526020600020016000909192909190916101000a81548173ffffffffffffffffffffffffffffffffffffffff021916908373ffffffffffffffffffffffffffffffffffffffff1602179055505050565b606082516040519080825280602002602001820160405280156107ed5781602001602082028038833980820191505090505b50905060008090505b835181101561082657600082828151811061080d57fe5b60200260200101818152505080806001019150506107f6565b50600460405180608001604052803373ffffffffffffffffffffffffffffffffffffffff168152602001848152602001838152602001858152509080600181540180825580915050906001820390600052602060002090600402016000909192909190915060008201518160000160006101000a81548173ffffffffffffffffffffffffffffffffffffffff021916908373ffffffffffffffffffffffffffffffffffffffff16021790555060208201518160010190805190602001906108ee929190610931565b50604082015181600201908051906020019061090b9291906109b1565b5060608201518160030190805190602001906109289291906109fe565b50505050505050565b828054600181600116156101000203166002900490600052602060002090601f016020900481019282601f1061097257805160ff19168380011785556109a0565b828001600101855582156109a0579182015b8281111561099f578251825591602001919060010190610984565b5b5090506109ad9190610a4b565b5090565b8280548282559060005260206000209081019282156109ed579160200282015b828111156109ec5782518255916020019190600101906109d1565b5b5090506109fa9190610a4b565b5090565b828054828255906000526020600020908101928215610a3a579160200282015b82811115610a39578251825591602001919060010190610a1e565b5b509050610a479190610a70565b5090565b610a6d91905b80821115610a69576000816000905550600101610a51565b5090565b90565b610a9291905b80821115610a8e576000816000905550600101610a76565b5090565b90565b600081359050610aa481611261565b92915050565b600082601f830112610abb57600080fd5b8135610ace610ac982611063565b611036565b91508181835260208401935060208101905083856020840282011115610af357600080fd5b60005b83811015610b235781610b098882610b2d565b845260208401935060208301925050600181019050610af6565b5050505092915050565b600081359050610b3c81611278565b92915050565b600082601f830112610b5357600080fd5b8135610b66610b618261108b565b611036565b91508082526020830160208301858383011115610b8257600080fd5b610b8d83828461120e565b50505092915050565b600081359050610ba58161128f565b92915050565b600060208284031215610bbd57600080fd5b6000610bcb84828501610a95565b91505092915050565b60008060408385031215610be757600080fd5b600083013567ffffffffffffffff811115610c0157600080fd5b610c0d85828601610aaa565b925050602083013567ffffffffffffffff811115610c2a57600080fd5b610c3685828601610b42565b9150509250929050565b60008060408385031215610c5357600080fd5b6000610c6185828601610b96565b9250506020610c7285828601610b96565b9150509250929050565b6000610c888383610cd8565b60208301905092915050565b6000610ca08383610e85565b60208301905092915050565b6000610cb88383610f0d565b905092915050565b6000610ccc8383610f7e565b60208301905092915050565b610ce1816111c8565b82525050565b610cf0816111c8565b82525050565b6000610d01826110f7565b610d0b8185611162565b9350610d16836110b7565b8060005b83811015610d47578151610d2e8882610c7c565b9750610d398361112e565b925050600181019050610d1a565b5085935050505092915050565b6000610d5f82611102565b610d698185611173565b9350610d74836110c7565b8060005b83811015610da5578151610d8c8882610c94565b9750610d978361113b565b925050600181019050610d78565b5085935050505092915050565b6000610dbd8261110d565b610dc78185611184565b935083602082028501610dd9856110d7565b8060005b85811015610e155784840389528151610df68582610cac565b9450610e0183611148565b925060208a01995050600181019050610ddd565b50829750879550505050505092915050565b6000610e3282611118565b610e3c8185611195565b9350610e47836110e7565b8060005b83811015610e78578151610e5f8882610cc0565b9750610e6a83611155565b925050600181019050610e4b565b5085935050505092915050565b610e8e816111da565b82525050565b6000610e9f82611123565b610ea981856111a6565b9350610eb981856020860161121d565b610ec281611250565b840191505092915050565b6000610eda6013836111b7565b91507f566f746564207375636365737366756c6c7921000000000000000000000000006000830152602082019050919050565b6000608083016000830151610f256000860182610cd8565b5060208301518482036020860152610f3d8282610e94565b91505060408301518482036040860152610f578282610e27565b91505060608301518482036060860152610f718282610d54565b9150508091505092915050565b610f8781611204565b82525050565b610f9681611204565b82525050565b6000602082019050610fb16000830184610ce7565b92915050565b60006020820190508181036000830152610fd18184610cf6565b905092915050565b60006020820190508181036000830152610ff38184610db2565b905092915050565b6000602082019050818103600083015261101481610ecd565b9050919050565b60006020820190506110306000830184610f8d565b92915050565b6000604051905081810181811067ffffffffffffffff8211171561105957600080fd5b8060405250919050565b600067ffffffffffffffff82111561107a57600080fd5b602082029050602081019050919050565b600067ffffffffffffffff8211156110a257600080fd5b601f19601f8301169050602081019050919050565b6000819050602082019050919050565b6000819050602082019050919050565b6000819050602082019050919050565b6000819050602082019050919050565b600081519050919050565b600081519050919050565b600081519050919050565b600081519050919050565b600081519050919050565b6000602082019050919050565b6000602082019050919050565b6000602082019050919050565b6000602082019050919050565b600082825260208201905092915050565b600082825260208201905092915050565b600082825260208201905092915050565b600082825260208201905092915050565b600082825260208201905092915050565b600082825260208201905092915050565b60006111d3826111e4565b9050919050565b6000819050919050565b600073ffffffffffffffffffffffffffffffffffffffff82169050919050565b6000819050919050565b82818337600083830152505050565b60005b8381101561123b578082015181840152602081019050611220565b8381111561124a576000848401525b50505050565b6000601f19601f8301169050919050565b61126a816111c8565b811461127557600080fd5b50565b611281816111da565b811461128c57600080fd5b50565b61129881611204565b81146112a357600080fd5b5056fea365627a7a72315820d1ebf4abe777b8c1358955135e494c339343fd00e00706ec012c8815fde929386c6578706572696d656e74616cf564736f6c63430005100040",
  "source": "// SPDX-License-Identifier: MIT\r\npragma solidity >=0.4.22 <0.9.0;\r\npragma experimental ABIEncoderV2;\r\n\r\n\r\n\r\n/// @title A title that should describe the contract/interface\r\n/// @author L.Moumen\r\n/// @notice Explain to an end user what this does\r\n/// @dev Explain to a developer any extra details\r\n\r\n\r\ncontract Election{\r\n\r\n    struct Voter{\r\n        uint weight;\r\n        mapping(uint => uint) votedChoice;  // index of the voted proposal choice\r\n        mapping(uint => bool) votedIndex;  // index of the voted proposal\r\n    }\r\n\r\n    struct Proposals{\r\n        address creator;\r\n        string description;\r\n        uint256[] condidate_voteCount;\r\n        bytes32[] condidate_name;\r\n    }\r\n\r\n    struct Condidate{\r\n        bytes32 name;\r\n        uint256 voteCount;\r\n    }\r\n    string name;\r\n    address public owner;\r\n    mapping(address => Voter) public voters;\r\n    address[] authorized;\r\n    Proposals[] internal proposals;\r\n    uint public auctionEnd;\r\n\r\n\r\n\r\n    event Voted(string _message);\r\n\r\n    function getproposals() view external returns(Proposals[] memory){\r\n        return proposals;\r\n    }\r\n\r\n    function addProposals(bytes32[] memory _condidates,string memory _description) public {\r\n        uint256[] memory condidate_voteCount = new uint256[](_condidates.length);\r\n\r\n        for (uint i = 0; i < _condidates.length; i++) {\r\n            condidate_voteCount[i] = 0;\r\n        }\r\n\r\n        proposals.push(Proposals({\r\n            creator: msg.sender,\r\n            description: _description,\r\n            condidate_voteCount: condidate_voteCount,\r\n            condidate_name: _condidates\r\n        }));\r\n    }\r\n\r\n    constructor (uint duration) public {\r\n        owner = msg.sender;\r\n        auctionEnd =    block.timestamp + (duration * 1 minutes);\r\n\r\n        authorize(owner);\r\n    }\r\n\r\n    function authorize(address voter) public {\r\n        // the sender is the owner\r\n        require(msg.sender == owner);\r\n        require(voters[voter].weight == 0);\r\n        voters[voter].weight = 1;\r\n        authorized.push(voter);\r\n    }\r\n\r\n\r\n    // view is free\r\n    function getAuthorized() view external returns (address[] memory) {\r\n        return authorized;\r\n    }\r\n\r\n    function vote(uint propIndex,uint choiceIndex) public {\r\n        // the duration of vote has't already pass\r\n        require(block.timestamp < auctionEnd);\r\n        // the sender has't voted before\r\n        require(!voters[msg.sender].votedIndex[propIndex]);\r\n        // the sender is voitng\r\n        voters[msg.sender].votedIndex[propIndex] = true;\r\n        // the sender choice from a proposal\r\n        voters[msg.sender].votedChoice[propIndex] = choiceIndex;\r\n        // increment proposal choice!\r\n        proposals[propIndex].condidate_voteCount[choiceIndex] += voters[msg.sender].weight;\r\n        \r\n        emit Voted(\"Voted successfully!\");\r\n    }\r\n\r\n\r\n}\r\n",
  "sourcePath": "C:/Users/Lahmi/Projects/blockchain/polarizer/contracts/Election.sol",
  "compiler": {
    "name": "solc",
    "version": "0.5.16+commit.9c3226ce.Emscripten.clang"
  },
  "schemaVersion": "3.3.4",
  "updatedAt": "2021-03-02T09:08:53.081Z",
  "networkType": "ethereum",
  "devdoc": {
    "author": "L.Moumen",
    "details": "Explain to a developer any extra details",
    "methods": {},
    "title": "A title that should describe the contract/interface"
  },
  "userdoc": {
    "methods": {},
    "notice": "Explain to an end user what this does"
  }
}