{
  "contractName": "Election",
  "abi": [
    {
      "inputs": [
        {
          "internalType": "string",
          "name": "_name",
          "type": "string"
        },
        {
          "internalType": "uint256",
          "name": "duration",
          "type": "uint256"
        },
        {
          "internalType": "string",
          "name": "con1",
          "type": "string"
        },
        {
          "internalType": "string",
          "name": "con2",
          "type": "string"
        }
      ],
      "payable": false,
      "stateMutability": "nonpayable",
      "type": "constructor"
    },
    {
      "anonymous": false,
      "inputs": [
        {
          "indexed": false,
          "internalType": "string",
          "name": "_message",
          "type": "string"
        }
      ],
      "name": "Voted",
      "type": "event"
    },
    {
      "constant": true,
      "inputs": [],
      "name": "auctionEnd",
      "outputs": [
        {
          "internalType": "uint256",
          "name": "",
          "type": "uint256"
        }
      ],
      "payable": false,
      "stateMutability": "view",
      "type": "function"
    },
    {
      "constant": true,
      "inputs": [
        {
          "internalType": "uint256",
          "name": "",
          "type": "uint256"
        }
      ],
      "name": "condidates",
      "outputs": [
        {
          "internalType": "string",
          "name": "name",
          "type": "string"
        },
        {
          "internalType": "uint256",
          "name": "voteCount",
          "type": "uint256"
        }
      ],
      "payable": false,
      "stateMutability": "view",
      "type": "function"
    },
    {
      "constant": true,
      "inputs": [],
      "name": "owner",
      "outputs": [
        {
          "internalType": "address",
          "name": "",
          "type": "address"
        }
      ],
      "payable": false,
      "stateMutability": "view",
      "type": "function"
    },
    {
      "constant": true,
      "inputs": [
        {
          "internalType": "address",
          "name": "",
          "type": "address"
        }
      ],
      "name": "voters",
      "outputs": [
        {
          "internalType": "bool",
          "name": "voted",
          "type": "bool"
        },
        {
          "internalType": "uint256",
          "name": "indexVoter",
          "type": "uint256"
        },
        {
          "internalType": "uint256",
          "name": "weight",
          "type": "uint256"
        }
      ],
      "payable": false,
      "stateMutability": "view",
      "type": "function"
    },
    {
      "constant": false,
      "inputs": [
        {
          "internalType": "address",
          "name": "voter",
          "type": "address"
        }
      ],
      "name": "authorize",
      "outputs": [],
      "payable": false,
      "stateMutability": "nonpayable",
      "type": "function"
    },
    {
      "constant": false,
      "inputs": [
        {
          "internalType": "uint256",
          "name": "voteIndex",
          "type": "uint256"
        }
      ],
      "name": "vote",
      "outputs": [],
      "payable": false,
      "stateMutability": "nonpayable",
      "type": "function"
    }
  ],
  "bytecode": "0x608060405234801561001057600080fd5b5060405162000af838038062000af88339818101604052608081101561003557600080fd5b810190808051604051939291908464010000000082111561005557600080fd5b8382019150602082018581111561006b57600080fd5b825186600182028301116401000000008211171561008857600080fd5b8083526020830192505050908051906020019080838360005b838110156100bc5780820151818401526020810190506100a1565b50505050905090810190601f1680156100e95780820380516001836020036101000a031916815260200191505b50604052602001805190602001909291908051604051939291908464010000000082111561011657600080fd5b8382019150602082018581111561012c57600080fd5b825186600182028301116401000000008211171561014957600080fd5b8083526020830192505050908051906020019080838360005b8381101561017d578082015181840152602081019050610162565b50505050905090810190601f1680156101aa5780820380516001836020036101000a031916815260200191505b50604052602001805160405193929190846401000000008211156101cd57600080fd5b838201915060208201858111156101e357600080fd5b825186600182028301116401000000008211171561020057600080fd5b8083526020830192505050908051906020019080838360005b83811015610234578082015181840152602081019050610219565b50505050905090810190601f1680156102615780820380516001836020036101000a031916815260200191505b5060405250505033600160006101000a81548173ffffffffffffffffffffffffffffffffffffffff021916908373ffffffffffffffffffffffffffffffffffffffff16021790555083600090805190602001906102bf9291906103af565b50603c8302420160048190555060036040518060400160405280848152602001600081525090806001815401808255809150509060018203906000526020600020906002020160009091929091909150600082015181600001908051906020019061032b92919061042f565b506020820151816001015550505060036040518060400160405280838152602001600081525090806001815401808255809150509060018203906000526020600020906002020160009091929091909150600082015181600001908051906020019061039892919061042f565b5060208201518160010155505050505050506104d4565b828054600181600116156101000203166002900490600052602060002090601f016020900481019282601f106103f057805160ff191683800117855561041e565b8280016001018555821561041e579182015b8281111561041d578251825591602001919060010190610402565b5b50905061042b91906104af565b5090565b828054600181600116156101000203166002900490600052602060002090601f016020900481019282601f1061047057805160ff191683800117855561049e565b8280016001018555821561049e579182015b8281111561049d578251825591602001919060010190610482565b5b5090506104ab91906104af565b5090565b6104d191905b808211156104cd5760008160009055506001016104b5565b5090565b90565b61061480620004e46000396000f3fe608060405234801561001057600080fd5b50600436106100625760003560e01c80630121b93f146100675780632a24f46c1461009557806378f8c4ed146100b35780638da5cb5b14610161578063a3ec138d146101ab578063b6a5d7de14610215575b600080fd5b6100936004803603602081101561007d57600080fd5b8101908080359060200190929190505050610259565b005b61009d6103b4565b6040518082815260200191505060405180910390f35b6100df600480360360208110156100c957600080fd5b81019080803590602001909291905050506103ba565b6040518080602001838152602001828103825284818151815260200191508051906020019080838360005b8381101561012557808201518184015260208101905061010a565b50505050905090810190601f1680156101525780820380516001836020036101000a031916815260200191505b50935050505060405180910390f35b610169610483565b604051808273ffffffffffffffffffffffffffffffffffffffff1673ffffffffffffffffffffffffffffffffffffffff16815260200191505060405180910390f35b6101ed600480360360208110156101c157600080fd5b81019080803573ffffffffffffffffffffffffffffffffffffffff1690602001909291905050506104a9565b6040518084151515158152602001838152602001828152602001935050505060405180910390f35b6102576004803603602081101561022b57600080fd5b81019080803573ffffffffffffffffffffffffffffffffffffffff1690602001909291905050506104e0565b005b600454421061026757600080fd5b600260003373ffffffffffffffffffffffffffffffffffffffff1673ffffffffffffffffffffffffffffffffffffffff16815260200190815260200160002060000160009054906101000a900460ff16156102c157600080fd5b6001600260003373ffffffffffffffffffffffffffffffffffffffff1673ffffffffffffffffffffffffffffffffffffffff16815260200190815260200160002060000160006101000a81548160ff02191690831515021790555060016003828154811061032b57fe5b9060005260206000209060020201600101600082825401925050819055507f38cb362e55241cdbab8a2f1105fb99fc7be1f0d6a865f97e688d6d5df0a036146040518080602001828103825260198152602001807f446174612073746f726564207375636365737366756c6c79210000000000000081525060200191505060405180910390a150565b60045481565b600381815481106103c757fe5b9060005260206000209060020201600091509050806000018054600181600116156101000203166002900480601f0160208091040260200160405190810160405280929190818152602001828054600181600116156101000203166002900480156104735780601f1061044857610100808354040283529160200191610473565b820191906000526020600020905b81548152906001019060200180831161045657829003601f168201915b5050505050908060010154905082565b600160009054906101000a900473ffffffffffffffffffffffffffffffffffffffff1681565b60026020528060005260406000206000915090508060000160009054906101000a900460ff16908060010154908060020154905083565b600160009054906101000a900473ffffffffffffffffffffffffffffffffffffffff1673ffffffffffffffffffffffffffffffffffffffff163373ffffffffffffffffffffffffffffffffffffffff161461053a57600080fd5b600260008273ffffffffffffffffffffffffffffffffffffffff1673ffffffffffffffffffffffffffffffffffffffff16815260200190815260200160002060000160009054906101000a900460ff161561059457600080fd5b6001600260008373ffffffffffffffffffffffffffffffffffffffff1673ffffffffffffffffffffffffffffffffffffffff168152602001908152602001600020600201819055505056fea265627a7a7231582006e3f4f019a17ddd598b3e341d0f0e6273d636f20312817d437a3de805b61bf264736f6c63430005100032",
  "source": "// SPDX-License-Identifier: MIT\r\npragma solidity >=0.4.22 <0.9.0;\r\n\r\n\r\n/// @title A title that should describe the contract/interface\r\n/// @author The name of the author\r\n/// @notice Explain to an end user what this does\r\n/// @dev Explain to a developer any extra details\r\n\r\n\r\ncontract Election{\r\n\r\n    struct Voter{\r\n        bool voted;\r\n        uint indexVoter;\r\n        uint weight;\r\n    }\r\n\r\n    struct Condidate{\r\n        string name;\r\n        uint voteCount;\r\n    }\r\n    string name;\r\n    address public owner;\r\n    mapping(address => Voter) public voters;\r\n    Condidate[] public condidates;\r\n    uint public auctionEnd;\r\n\r\n    event Voted(string _message);\r\n\r\n    constructor (string memory _name, uint duration,string memory con1, string memory con2) public {\r\n        owner = msg.sender;\r\n        name = _name;\r\n        auctionEnd =    block.timestamp + (duration * 1 minutes);\r\n\r\n        condidates.push(Condidate(con1,0));\r\n        condidates.push(Condidate(con2,0));\r\n    }\r\n\r\n    function authorize(address voter) public {\r\n        // the sender is the owner\r\n        require(msg.sender == owner);\r\n        require(!voters[voter].voted);\r\n\r\n        voters[voter].weight = 1;\r\n    }\r\n\r\n    function vote(uint voteIndex) public {\r\n        // the duration of vote has't already pass\r\n        require(block.timestamp < auctionEnd);\r\n        // the sender has't voted before\r\n        require(!voters[msg.sender].voted);\r\n        voters[msg.sender].voted = true;\r\n        condidates[voteIndex].voteCount += 1; //voters[msg.sender].weight;\r\n        \r\n        emit Voted(\"Data stored successfully!\");\r\n    }\r\n\r\n\r\n}\r\n",
  "sourcePath": "C:/Users/Lahmi/Projects/blockchain/polarizer/contracts/Election.sol",
  "compiler": {
    "name": "solc",
    "version": "0.5.16+commit.9c3226ce.Emscripten.clang"
  },
  "schemaVersion": "3.3.4",
  "updatedAt": "2021-02-23T08:23:26.649Z",
  "networkType": "ethereum",
  "devdoc": {
    "author": "The name of the author",
    "details": "Explain to a developer any extra details",
    "methods": {},
    "title": "A title that should describe the contract/interface"
  },
  "userdoc": {
    "methods": {},
    "notice": "Explain to an end user what this does"
  }
}