{
  "contractName": "Election",
  "abi": [
    {
      "inputs": [
        {
          "internalType": "string",
          "name": "_name",
          "type": "string"
        },
        {
          "internalType": "uint256",
          "name": "duration",
          "type": "uint256"
        },
        {
          "internalType": "bytes32[]",
          "name": "con",
          "type": "bytes32[]"
        }
      ],
      "payable": false,
      "stateMutability": "nonpayable",
      "type": "constructor"
    },
    {
      "anonymous": false,
      "inputs": [
        {
          "indexed": false,
          "internalType": "string",
          "name": "_message",
          "type": "string"
        }
      ],
      "name": "Voted",
      "type": "event"
    },
    {
      "constant": true,
      "inputs": [],
      "name": "auctionEnd",
      "outputs": [
        {
          "internalType": "uint256",
          "name": "",
          "type": "uint256"
        }
      ],
      "payable": false,
      "stateMutability": "view",
      "type": "function"
    },
    {
      "constant": true,
      "inputs": [
        {
          "internalType": "uint256",
          "name": "",
          "type": "uint256"
        }
      ],
      "name": "condidates",
      "outputs": [
        {
          "internalType": "bytes32",
          "name": "name",
          "type": "bytes32"
        },
        {
          "internalType": "uint256",
          "name": "voteCount",
          "type": "uint256"
        }
      ],
      "payable": false,
      "stateMutability": "view",
      "type": "function"
    },
    {
      "constant": true,
      "inputs": [],
      "name": "owner",
      "outputs": [
        {
          "internalType": "address",
          "name": "",
          "type": "address"
        }
      ],
      "payable": false,
      "stateMutability": "view",
      "type": "function"
    },
    {
      "constant": true,
      "inputs": [
        {
          "internalType": "address",
          "name": "",
          "type": "address"
        }
      ],
      "name": "voters",
      "outputs": [
        {
          "internalType": "bool",
          "name": "voted",
          "type": "bool"
        },
        {
          "internalType": "uint256",
          "name": "indexVoter",
          "type": "uint256"
        },
        {
          "internalType": "uint256",
          "name": "weight",
          "type": "uint256"
        }
      ],
      "payable": false,
      "stateMutability": "view",
      "type": "function"
    },
    {
      "constant": true,
      "inputs": [],
      "name": "getproposals",
      "outputs": [
        {
          "components": [
            {
              "internalType": "address",
              "name": "creator",
              "type": "address"
            },
            {
              "internalType": "string",
              "name": "description",
              "type": "string"
            },
            {
              "internalType": "uint256[]",
              "name": "condidate_voteCount",
              "type": "uint256[]"
            },
            {
              "internalType": "bytes32[]",
              "name": "condidate_name",
              "type": "bytes32[]"
            }
          ],
          "internalType": "struct Election.Proposals[]",
          "name": "",
          "type": "tuple[]"
        }
      ],
      "payable": false,
      "stateMutability": "view",
      "type": "function"
    },
    {
      "constant": false,
      "inputs": [
        {
          "internalType": "bytes32[]",
          "name": "_condidates",
          "type": "bytes32[]"
        },
        {
          "internalType": "string",
          "name": "_description",
          "type": "string"
        }
      ],
      "name": "addProposals",
      "outputs": [],
      "payable": false,
      "stateMutability": "nonpayable",
      "type": "function"
    },
    {
      "constant": false,
      "inputs": [
        {
          "internalType": "address",
          "name": "voter",
          "type": "address"
        }
      ],
      "name": "authorize",
      "outputs": [],
      "payable": false,
      "stateMutability": "nonpayable",
      "type": "function"
    },
    {
      "constant": true,
      "inputs": [],
      "name": "getAuthorized",
      "outputs": [
        {
          "internalType": "address[]",
          "name": "",
          "type": "address[]"
        }
      ],
      "payable": false,
      "stateMutability": "view",
      "type": "function"
    },
    {
      "constant": true,
      "inputs": [],
      "name": "getCondidateNames",
      "outputs": [
        {
          "internalType": "bytes32[]",
          "name": "",
          "type": "bytes32[]"
        }
      ],
      "payable": false,
      "stateMutability": "view",
      "type": "function"
    },
    {
      "constant": true,
      "inputs": [],
      "name": "getCondidateVotes",
      "outputs": [
        {
          "internalType": "uint256[]",
          "name": "",
          "type": "uint256[]"
        }
      ],
      "payable": false,
      "stateMutability": "view",
      "type": "function"
    },
    {
      "constant": true,
      "inputs": [],
      "name": "getCount",
      "outputs": [
        {
          "internalType": "uint256",
          "name": "count",
          "type": "uint256"
        }
      ],
      "payable": false,
      "stateMutability": "view",
      "type": "function"
    },
    {
      "constant": false,
      "inputs": [
        {
          "internalType": "uint256",
          "name": "voteIndex",
          "type": "uint256"
        }
      ],
      "name": "vote",
      "outputs": [],
      "payable": false,
      "stateMutability": "nonpayable",
      "type": "function"
    }
  ],
  "bytecode": "0x60806040523480156200001157600080fd5b5060405162001d6d38038062001d6d8339818101604052620000379190810190620004e3565b33600160006101000a81548173ffffffffffffffffffffffffffffffffffffffff021916908373ffffffffffffffffffffffffffffffffffffffff1602179055508260009080519060200190620000909291906200031d565b50603c82024201600681905550620000d0600160009054906101000a900473ffffffffffffffffffffffffffffffffffffffff166200016660201b60201c565b60008090505b81518110156200015c5760046040518060400160405280848481518110620000fa57fe5b6020026020010151815260200160008152509080600181540180825580915050906001820390600052602060002090600202016000909192909190915060008201518160000155602082015181600101555050508080600101915050620000d6565b505050506200066d565b600160009054906101000a900473ffffffffffffffffffffffffffffffffffffffff1673ffffffffffffffffffffffffffffffffffffffff163373ffffffffffffffffffffffffffffffffffffffff1614620001c157600080fd5b600260008273ffffffffffffffffffffffffffffffffffffffff1673ffffffffffffffffffffffffffffffffffffffff16815260200190815260200160002060000160009054906101000a900460ff16156200021c57600080fd5b6000600260008373ffffffffffffffffffffffffffffffffffffffff1673ffffffffffffffffffffffffffffffffffffffff16815260200190815260200160002060020154146200026c57600080fd5b6001600260008373ffffffffffffffffffffffffffffffffffffffff1673ffffffffffffffffffffffffffffffffffffffff1681526020019081526020016000206002018190555060038190806001815401808255809150509060018203906000526020600020016000909192909190916101000a81548173ffffffffffffffffffffffffffffffffffffffff021916908373ffffffffffffffffffffffffffffffffffffffff1602179055505050565b828054600181600116156101000203166002900490600052602060002090601f016020900481019282601f106200036057805160ff191683800117855562000391565b8280016001018555821562000391579182015b828111156200039057825182559160200191906001019062000373565b5b509050620003a09190620003a4565b5090565b620003c991905b80821115620003c5576000816000905550600101620003ab565b5090565b90565b600082601f830112620003de57600080fd5b8151620003f5620003ef8262000599565b6200056b565b915081818352602084019350602081019050838560208402820111156200041b57600080fd5b60005b838110156200044f578162000434888262000459565b8452602084019350602083019250506001810190506200041e565b5050505092915050565b6000815190506200046a8162000639565b92915050565b600082601f8301126200048257600080fd5b8151620004996200049382620005c2565b6200056b565b91508082526020830160208301858383011115620004b657600080fd5b620004c383828462000603565b50505092915050565b600081519050620004dd8162000653565b92915050565b600080600060608486031215620004f957600080fd5b600084015167ffffffffffffffff8111156200051457600080fd5b620005228682870162000470565b93505060206200053586828701620004cc565b925050604084015167ffffffffffffffff8111156200055357600080fd5b6200056186828701620003cc565b9150509250925092565b6000604051905081810181811067ffffffffffffffff821117156200058f57600080fd5b8060405250919050565b600067ffffffffffffffff821115620005b157600080fd5b602082029050602081019050919050565b600067ffffffffffffffff821115620005da57600080fd5b601f19601f8301169050602081019050919050565b6000819050919050565b6000819050919050565b60005b838110156200062357808201518184015260208101905062000606565b8381111562000633576000848401525b50505050565b6200064481620005ef565b81146200065057600080fd5b50565b6200065e81620005f9565b81146200066a57600080fd5b50565b6116f0806200067d6000396000f3fe608060405234801561001057600080fd5b50600436106100b45760003560e01c80638da5cb5b116100715780638da5cb5b1461017e578063a3ec138d1461019c578063a87d942c146101ce578063b6a5d7de146101ec578063bd64555a14610208578063c3efeffd14610224576100b4565b80630121b93f146100b95780632a24f46c146100d557806364645c03146100f357806378f8c4ed1461011157806379d96aa9146101425780638413ad4814610160575b600080fd5b6100d360048036036100ce9190810190610e5e565b610242565b005b6100dd6103ab565b6040516100ea91906113a4565b60405180910390f35b6100fb6103b1565b60405161010891906112e0565b60405180910390f35b61012b60048036036101269190810190610e5e565b6105b8565b60405161013992919061135b565b60405180910390f35b61014a6105e9565b60405161015791906112be565b60405180910390f35b61016861068b565b604051610175919061129c565b60405180910390f35b610186610719565b6040516101939190611281565b60405180910390f35b6101b660048036036101b19190810190610dc9565b61073f565b6040516101c593929190611324565b60405180910390f35b6101d6610776565b6040516101e391906113a4565b60405180910390f35b61020660048036036102019190810190610dc9565b610783565b005b610222600480360361021d9190810190610df2565b610937565b005b61022c610aad565b6040516102399190611302565b60405180910390f35b600654421061025057600080fd5b600260003373ffffffffffffffffffffffffffffffffffffffff1673ffffffffffffffffffffffffffffffffffffffff16815260200190815260200160002060000160009054906101000a900460ff16156102aa57600080fd5b6001600260003373ffffffffffffffffffffffffffffffffffffffff1673ffffffffffffffffffffffffffffffffffffffff16815260200190815260200160002060000160006101000a81548160ff021916908315150217905550600260003373ffffffffffffffffffffffffffffffffffffffff1673ffffffffffffffffffffffffffffffffffffffff168152602001908152602001600020600201546004828154811061035557fe5b9060005260206000209060020201600101600082825401925050819055507f38cb362e55241cdbab8a2f1105fb99fc7be1f0d6a865f97e688d6d5df0a036146040516103a090611384565b60405180910390a150565b60065481565b60606005805480602002602001604051908101604052809291908181526020016000905b828210156105af57838290600052602060002090600402016040518060800160405290816000820160009054906101000a900473ffffffffffffffffffffffffffffffffffffffff1673ffffffffffffffffffffffffffffffffffffffff1673ffffffffffffffffffffffffffffffffffffffff168152602001600182018054600181600116156101000203166002900480601f0160208091040260200160405190810160405280929190818152602001828054600181600116156101000203166002900480156104e75780601f106104bc576101008083540402835291602001916104e7565b820191906000526020600020905b8154815290600101906020018083116104ca57829003601f168201915b505050505081526020016002820180548060200260200160405190810160405280929190818152602001828054801561053f57602002820191906000526020600020905b81548152602001906001019080831161052b575b505050505081526020016003820180548060200260200160405190810160405280929190818152602001828054801561059757602002820191906000526020600020905b815481526020019060010190808311610583575b505050505081525050815260200190600101906103d5565b50505050905090565b600481815481106105c557fe5b90600052602060002090600202016000915090508060000154908060010154905082565b606060006105f5610776565b90506060816040519080825280602002602001820160405280156106285781602001602082028038833980820191505090505b50905060008090505b600480549050811015610682576004818154811061064b57fe5b90600052602060002090600202016000015482828151811061066957fe5b6020026020010181815250508080600101915050610631565b50809250505090565b6060600380548060200260200160405190810160405280929190818152602001828054801561070f57602002820191906000526020600020905b8160009054906101000a900473ffffffffffffffffffffffffffffffffffffffff1673ffffffffffffffffffffffffffffffffffffffff16815260200190600101908083116106c5575b5050505050905090565b600160009054906101000a900473ffffffffffffffffffffffffffffffffffffffff1681565b60026020528060005260406000206000915090508060000160009054906101000a900460ff16908060010154908060020154905083565b6000600480549050905090565b600160009054906101000a900473ffffffffffffffffffffffffffffffffffffffff1673ffffffffffffffffffffffffffffffffffffffff163373ffffffffffffffffffffffffffffffffffffffff16146107dd57600080fd5b600260008273ffffffffffffffffffffffffffffffffffffffff1673ffffffffffffffffffffffffffffffffffffffff16815260200190815260200160002060000160009054906101000a900460ff161561083757600080fd5b6000600260008373ffffffffffffffffffffffffffffffffffffffff1673ffffffffffffffffffffffffffffffffffffffff168152602001908152602001600020600201541461088657600080fd5b6001600260008373ffffffffffffffffffffffffffffffffffffffff1673ffffffffffffffffffffffffffffffffffffffff1681526020019081526020016000206002018190555060038190806001815401808255809150509060018203906000526020600020016000909192909190916101000a81548173ffffffffffffffffffffffffffffffffffffffff021916908373ffffffffffffffffffffffffffffffffffffffff1602179055505050565b606082516040519080825280602002602001820160405280156109695781602001602082028038833980820191505090505b50905060008090505b83518110156109a257600082828151811061098957fe5b6020026020010181815250508080600101915050610972565b50600560405180608001604052803373ffffffffffffffffffffffffffffffffffffffff168152602001848152602001838152602001858152509080600181540180825580915050906001820390600052602060002090600402016000909192909190915060008201518160000160006101000a81548173ffffffffffffffffffffffffffffffffffffffff021916908373ffffffffffffffffffffffffffffffffffffffff1602179055506020820151816001019080519060200190610a6a929190610b4f565b506040820151816002019080519060200190610a87929190610bcf565b506060820151816003019080519060200190610aa4929190610c1c565b50505050505050565b60606000610ab9610776565b9050606081604051908082528060200260200182016040528015610aec5781602001602082028038833980820191505090505b50905060008090505b600480549050811015610b465760048181548110610b0f57fe5b906000526020600020906002020160010154828281518110610b2d57fe5b6020026020010181815250508080600101915050610af5565b50809250505090565b828054600181600116156101000203166002900490600052602060002090601f016020900481019282601f10610b9057805160ff1916838001178555610bbe565b82800160010185558215610bbe579182015b82811115610bbd578251825591602001919060010190610ba2565b5b509050610bcb9190610c69565b5090565b828054828255906000526020600020908101928215610c0b579160200282015b82811115610c0a578251825591602001919060010190610bef565b5b509050610c189190610c69565b5090565b828054828255906000526020600020908101928215610c58579160200282015b82811115610c57578251825591602001919060010190610c3c565b5b509050610c659190610c8e565b5090565b610c8b91905b80821115610c87576000816000905550600101610c6f565b5090565b90565b610cb091905b80821115610cac576000816000905550600101610c94565b5090565b90565b600081359050610cc281611668565b92915050565b600082601f830112610cd957600080fd5b8135610cec610ce7826113ec565b6113bf565b91508181835260208401935060208101905083856020840282011115610d1157600080fd5b60005b83811015610d415781610d278882610d4b565b845260208401935060208301925050600181019050610d14565b5050505092915050565b600081359050610d5a8161167f565b92915050565b600082601f830112610d7157600080fd5b8135610d84610d7f82611414565b6113bf565b91508082526020830160208301858383011115610da057600080fd5b610dab838284611615565b50505092915050565b600081359050610dc381611696565b92915050565b600060208284031215610ddb57600080fd5b6000610de984828501610cb3565b91505092915050565b60008060408385031215610e0557600080fd5b600083013567ffffffffffffffff811115610e1f57600080fd5b610e2b85828601610cc8565b925050602083013567ffffffffffffffff811115610e4857600080fd5b610e5485828601610d60565b9150509250929050565b600060208284031215610e7057600080fd5b6000610e7e84828501610db4565b91505092915050565b6000610e938383610ee3565b60208301905092915050565b6000610eab838361115b565b60208301905092915050565b6000610ec383836111f2565b905092915050565b6000610ed78383611263565b60208301905092915050565b610eec816115c3565b82525050565b610efb816115c3565b82525050565b6000610f0c826114a0565b610f16818561153b565b9350610f2183611440565b8060005b83811015610f52578151610f398882610e87565b9750610f44836114ed565b925050600181019050610f25565b5085935050505092915050565b6000610f6a826114b6565b610f74818561155d565b9350610f7f83611460565b8060005b83811015610fb0578151610f978882610e9f565b9750610fa283611507565b925050600181019050610f83565b5085935050505092915050565b6000610fc8826114ab565b610fd2818561154c565b9350610fdd83611450565b8060005b8381101561100e578151610ff58882610e9f565b9750611000836114fa565b925050600181019050610fe1565b5085935050505092915050565b6000611026826114c1565b611030818561156e565b93508360208202850161104285611470565b8060005b8581101561107e578484038952815161105f8582610eb7565b945061106a83611514565b925060208a01995050600181019050611046565b50829750879550505050505092915050565b600061109b826114d7565b6110a58185611590565b93506110b083611490565b8060005b838110156110e15781516110c88882610ecb565b97506110d38361152e565b9250506001810190506110b4565b5085935050505092915050565b60006110f9826114cc565b611103818561157f565b935061110e83611480565b8060005b8381101561113f5781516111268882610ecb565b975061113183611521565b925050600181019050611112565b5085935050505092915050565b611155816115d5565b82525050565b611164816115e1565b82525050565b611173816115e1565b82525050565b6000611184826114e2565b61118e81856115a1565b935061119e818560208601611624565b6111a781611657565b840191505092915050565b60006111bf6013836115b2565b91507f566f746564207375636365737366756c6c7921000000000000000000000000006000830152602082019050919050565b600060808301600083015161120a6000860182610ee3565b50602083015184820360208601526112228282611179565b9150506040830151848203604086015261123c82826110ee565b915050606083015184820360608601526112568282610fbd565b9150508091505092915050565b61126c8161160b565b82525050565b61127b8161160b565b82525050565b60006020820190506112966000830184610ef2565b92915050565b600060208201905081810360008301526112b68184610f01565b905092915050565b600060208201905081810360008301526112d88184610f5f565b905092915050565b600060208201905081810360008301526112fa818461101b565b905092915050565b6000602082019050818103600083015261131c8184611090565b905092915050565b6000606082019050611339600083018661114c565b6113466020830185611272565b6113536040830184611272565b949350505050565b6000604082019050611370600083018561116a565b61137d6020830184611272565b9392505050565b6000602082019050818103600083015261139d816111b2565b9050919050565b60006020820190506113b96000830184611272565b92915050565b6000604051905081810181811067ffffffffffffffff821117156113e257600080fd5b8060405250919050565b600067ffffffffffffffff82111561140357600080fd5b602082029050602081019050919050565b600067ffffffffffffffff82111561142b57600080fd5b601f19601f8301169050602081019050919050565b6000819050602082019050919050565b6000819050602082019050919050565b6000819050602082019050919050565b6000819050602082019050919050565b6000819050602082019050919050565b6000819050602082019050919050565b600081519050919050565b600081519050919050565b600081519050919050565b600081519050919050565b600081519050919050565b600081519050919050565b600081519050919050565b6000602082019050919050565b6000602082019050919050565b6000602082019050919050565b6000602082019050919050565b6000602082019050919050565b6000602082019050919050565b600082825260208201905092915050565b600082825260208201905092915050565b600082825260208201905092915050565b600082825260208201905092915050565b600082825260208201905092915050565b600082825260208201905092915050565b600082825260208201905092915050565b600082825260208201905092915050565b60006115ce826115eb565b9050919050565b60008115159050919050565b6000819050919050565b600073ffffffffffffffffffffffffffffffffffffffff82169050919050565b6000819050919050565b82818337600083830152505050565b60005b83811015611642578082015181840152602081019050611627565b83811115611651576000848401525b50505050565b6000601f19601f8301169050919050565b611671816115c3565b811461167c57600080fd5b50565b611688816115e1565b811461169357600080fd5b50565b61169f8161160b565b81146116aa57600080fd5b5056fea365627a7a723158203a88dc20a6145038bf3295ad4c0b5a7be36049b5eb9091d8800e4db5703cdc566c6578706572696d656e74616cf564736f6c63430005100040",
  "source": "// SPDX-License-Identifier: MIT\r\npragma solidity >=0.4.22 <0.9.0;\r\npragma experimental ABIEncoderV2;\r\n\r\n\r\n\r\n/// @title A title that should describe the contract/interface\r\n/// @author The name of the author\r\n/// @notice Explain to an end user what this does\r\n/// @dev Explain to a developer any extra details\r\n\r\n\r\ncontract Election{\r\n\r\n    struct Voter{\r\n        bool voted;\r\n        uint indexVoter;\r\n        uint weight;\r\n    }\r\n\r\n    struct Proposals{\r\n        address creator;\r\n        string description;\r\n        uint256[] condidate_voteCount;\r\n        bytes32[] condidate_name;\r\n    }\r\n\r\n    struct Condidate{\r\n        bytes32 name;\r\n        uint256 voteCount;\r\n    }\r\n    string name;\r\n    address public owner;\r\n    mapping(address => Voter) public voters;\r\n    address[] authorized;\r\n    Condidate[] public condidates;\r\n    Proposals[] internal proposals;\r\n    uint public auctionEnd;\r\n\r\n\r\n\r\n    event Voted(string _message);\r\n\r\n    function getproposals() view external returns(Proposals[] memory){\r\n        return proposals;\r\n    }\r\n\r\n    function addProposals(bytes32[] memory _condidates,string memory _description) public {\r\n        uint256[] memory condidate_voteCount = new uint256[](_condidates.length);\r\n\r\n        for (uint i = 0; i < _condidates.length; i++) {\r\n            condidate_voteCount[i] = 0;\r\n        }\r\n\r\n        proposals.push(Proposals({\r\n            creator: msg.sender,\r\n            description: _description,\r\n            condidate_voteCount: condidate_voteCount,\r\n            condidate_name: _condidates\r\n        }));\r\n    }\r\n\r\n    constructor (string memory _name, uint duration,bytes32[] memory con) public {\r\n        owner = msg.sender;\r\n        name = _name;\r\n        auctionEnd =    block.timestamp + (duration * 1 minutes);\r\n\r\n        authorize(owner);\r\n\r\n        for (uint i = 0; i < con.length; i++) {\r\n            // `Proposal({...})` creates a temporary\r\n            // Proposal object and `proposals.push(...)`\r\n            // appends it to the end of `proposals`.\r\n            condidates.push(Condidate({\r\n                name: con[i],\r\n                voteCount: 0\r\n            }));\r\n        }\r\n\r\n    }\r\n\r\n    function authorize(address voter) public {\r\n        // the sender is the owner\r\n        require(msg.sender == owner);\r\n        require(!voters[voter].voted);\r\n        require(voters[voter].weight == 0);\r\n\r\n        voters[voter].weight = 1;\r\n        authorized.push(voter);\r\n    }\r\n\r\n\r\n\r\n    // view is free\r\n    \r\n\r\n    function getAuthorized() view external returns (address[] memory) {\r\n        return authorized;\r\n    }\r\n\r\n    // view is free\r\n    function getCondidateNames() view public returns (bytes32[] memory) {\r\n        uint csa = getCount();\r\n        bytes32[] memory foo = new bytes32[](csa);\r\n        for (uint i = 0; i < condidates.length; i++) {\r\n            foo[i] = condidates[i].name;\r\n        }\r\n        return foo;\r\n    }\r\n\r\n    function getCondidateVotes() view public returns (uint[] memory) {\r\n        uint csa = getCount();\r\n        uint[] memory foo = new uint[](csa);\r\n        for (uint i = 0; i < condidates.length; i++) {\r\n            foo[i] = condidates[i].voteCount;\r\n        }\r\n        return foo;\r\n    }\r\n\r\n    function getCount() public view returns(uint count) {\r\n        return condidates.length;\r\n    }\r\n\r\n    function vote(uint voteIndex) public {\r\n        // the duration of vote has't already pass\r\n        require(block.timestamp < auctionEnd);\r\n        // the sender has't voted before\r\n        require(!voters[msg.sender].voted);\r\n        voters[msg.sender].voted = true;\r\n        condidates[voteIndex].voteCount += voters[msg.sender].weight;\r\n        \r\n        emit Voted(\"Voted successfully!\");\r\n    }\r\n\r\n\r\n}\r\n",
  "sourcePath": "C:/Users/Lahmi/Projects/blockchain/polarizer/contracts/Election.sol",
  "compiler": {
    "name": "solc",
    "version": "0.5.16+commit.9c3226ce.Emscripten.clang"
  },
  "schemaVersion": "3.3.4",
  "updatedAt": "2021-02-28T10:31:13.168Z",
  "networkType": "ethereum",
  "devdoc": {
    "author": "The name of the author",
    "details": "Explain to a developer any extra details",
    "methods": {},
    "title": "A title that should describe the contract/interface"
  },
  "userdoc": {
    "methods": {},
    "notice": "Explain to an end user what this does"
  }
}